{"contracts/Manager.sol":{"Manager":{"abi":[{"inputs":[{"internalType":"address","name":"_stableCoin","type":"address"},{"internalType":"address","name":"_priceFeed","type":"address"},{"internalType":"address","name":"_owner","type":"address"}],"stateMutability":"nonpayable","type":"constructor"},{"inputs":[],"name":"Manager__ETHAmountCannotBeZero","type":"error"},{"inputs":[],"name":"Manager__OnlyOwnerCanCallThisFunction","type":"error"},{"inputs":[],"name":"Manager__WithdrawAmountExceedsContractBalance","type":"error"},{"inputs":[],"name":"Manager__WithdrawETHFailed","type":"error"},{"inputs":[],"name":"ETH_DECIMALS","outputs":[{"internalType":"uint256","name":"","type":"uint256"}],"stateMutability":"view","type":"function"},{"inputs":[],"name":"PRICE_DECIMALS","outputs":[{"internalType":"uint256","name":"","type":"uint256"}],"stateMutability":"view","type":"function"},{"inputs":[],"name":"getLatestPrice","outputs":[{"internalType":"uint256","name":"","type":"uint256"}],"stateMutability":"view","type":"function"},{"inputs":[],"name":"mintStableCoins","outputs":[],"stateMutability":"payable","type":"function"},{"inputs":[],"name":"owner","outputs":[{"internalType":"address","name":"","type":"address"}],"stateMutability":"view","type":"function"},{"inputs":[],"name":"priceFeed","outputs":[{"internalType":"contract AggregatorV3Interface","name":"","type":"address"}],"stateMutability":"view","type":"function"},{"inputs":[],"name":"stableCoin","outputs":[{"internalType":"contract StableCoin","name":"","type":"address"}],"stateMutability":"view","type":"function"},{"inputs":[{"internalType":"uint256","name":"ethAmount","type":"uint256"}],"name":"withdrawETH","outputs":[],"stateMutability":"nonpayable","type":"function"}],"evm":{"bytecode":{"linkReferences":{},"object":"60e0346100b457601f6105c238819003918201601f19168301916001600160401b038311848410176100b8578084926060946040528339810103126100b457610047816100cc565b906100606040610059602084016100cc565b92016100cc565b6001600160a01b03928316608052911660c05260a0526040516104e190816100e1823960805181818161018501526102ac015260a05181818160ab0152610210015260c05181818161025501526103ba0152f35b5f80fd5b634e487b7160e01b5f52604160045260245ffd5b51906001600160a01b03821682036100b45756fe60806040526004361015610011575f80fd5b5f5f3560e01c80631ac02f9f14610284578063741bef1a1461023f5780638da5cb5b146101fa5780638e15f473146101d757806392cd1ff2146101b4578063992642e51461016f578063f14210a6146100945763f1a640f814610072575f80fd5b3461009157806003193601126100915760206040516402540be4008152f35b80fd5b5034610091576020366003190112610091576004357f00000000000000000000000000000000000000000000000000000000000000006001600160a01b038116330361016057814710610151578280809381935af13d1561014c573d67ffffffffffffffff81116101385760405190610117601f8201601f191660200183610358565b81528260203d92013e5b156101295780f35b6339516b1360e01b8152600490fd5b634e487b7160e01b83526041600452602483fd5b610121565b632abaa12560e21b8352600483fd5b63dc73169d60e01b8352600483fd5b50346100915780600319360112610091576040517f00000000000000000000000000000000000000000000000000000000000000006001600160a01b03168152602090f35b50346100915780600319360112610091576020604051670de0b6b3a76400008152f35b503461009157806003193601126100915760206101f26103a5565b604051908152f35b50346100915780600319360112610091576040517f00000000000000000000000000000000000000000000000000000000000000006001600160a01b03168152602090f35b50346100915780600319360112610091576040517f00000000000000000000000000000000000000000000000000000000000000006001600160a01b03168152602090f35b505f3660031901126103315734156103495761029e6103a5565b8034029034820403610335577f00000000000000000000000000000000000000000000000000000000000000006001600160a01b031690813b1561033157670de0b6b3a764000060445f928360405195869485936340c10f1960e01b85523360048601520460248401525af1801561032657610318575080f35b61032491505f90610358565b005b6040513d5f823e3d90fd5b5f80fd5b634e487b7160e01b5f52601160045260245ffd5b6311f048c160e21b5f5260045ffd5b90601f8019910116810190811067ffffffffffffffff82111761037a57604052565b634e487b7160e01b5f52604160045260245ffd5b519069ffffffffffffffffffff8216820361033157565b604051633fabe5a360e21b815260a0816004817f00000000000000000000000000000000000000000000000000000000000000006001600160a01b03165afa908115610326575f9161045e575b505f811315610419576402540be4008102908082046402540be40014901517156103355790565b60405162461bcd60e51b815260206004820152601960248201527f496e76616c69642070726963652066726f6d206f7261636c65000000000000006044820152606490fd5b905060a0813d60a0116104a3575b8161047960a09383610358565b810103126103315761048a8161038e565b5061049c60806020830151920161038e565b505f6103f2565b3d915061046c56fea2646970667358221220851af14e08d5ce282fee168e97db3da6cb2873f0f70f8c883403e7069bceb39564736f6c634300081b0033","opcodes":"PUSH1 0xE0 CALLVALUE PUSH2 0xB4 JUMPI PUSH1 0x1F PUSH2 0x5C2 CODESIZE DUP2 SWAP1 SUB SWAP2 DUP3 ADD PUSH1 0x1F NOT AND DUP4 ADD SWAP2 PUSH1 0x1 PUSH1 0x1 PUSH1 0x40 SHL SUB DUP4 GT DUP5 DUP5 LT OR PUSH2 0xB8 JUMPI DUP1 DUP5 SWAP3 PUSH1 0x60 SWAP5 PUSH1 0x40 MSTORE DUP4 CODECOPY DUP2 ADD SUB SLT PUSH2 0xB4 JUMPI PUSH2 0x47 DUP2 PUSH2 0xCC JUMP JUMPDEST SWAP1 PUSH2 0x60 PUSH1 0x40 PUSH2 0x59 PUSH1 0x20 DUP5 ADD PUSH2 0xCC JUMP JUMPDEST SWAP3 ADD PUSH2 0xCC JUMP JUMPDEST PUSH1 0x1 PUSH1 0x1 PUSH1 0xA0 SHL SUB SWAP3 DUP4 AND PUSH1 0x80 MSTORE SWAP2 AND PUSH1 0xC0 MSTORE PUSH1 0xA0 MSTORE PUSH1 0x40 MLOAD PUSH2 0x4E1 SWAP1 DUP2 PUSH2 0xE1 DUP3 CODECOPY PUSH1 0x80 MLOAD DUP2 DUP2 DUP2 PUSH2 0x185 ADD MSTORE PUSH2 0x2AC ADD MSTORE PUSH1 0xA0 MLOAD DUP2 DUP2 DUP2 PUSH1 0xAB ADD MSTORE PUSH2 0x210 ADD MSTORE PUSH1 0xC0 MLOAD DUP2 DUP2 DUP2 PUSH2 0x255 ADD MSTORE PUSH2 0x3BA ADD MSTORE RETURN JUMPDEST PUSH0 DUP1 REVERT JUMPDEST PUSH4 0x4E487B71 PUSH1 0xE0 SHL PUSH0 MSTORE PUSH1 0x41 PUSH1 0x4 MSTORE PUSH1 0x24 PUSH0 REVERT JUMPDEST MLOAD SWAP1 PUSH1 0x1 PUSH1 0x1 PUSH1 0xA0 SHL SUB DUP3 AND DUP3 SUB PUSH2 0xB4 JUMPI JUMP INVALID PUSH1 0x80 PUSH1 0x40 MSTORE PUSH1 0x4 CALLDATASIZE LT ISZERO PUSH2 0x11 JUMPI PUSH0 DUP1 REVERT JUMPDEST PUSH0 PUSH0 CALLDATALOAD PUSH1 0xE0 SHR DUP1 PUSH4 0x1AC02F9F EQ PUSH2 0x284 JUMPI DUP1 PUSH4 0x741BEF1A EQ PUSH2 0x23F JUMPI DUP1 PUSH4 0x8DA5CB5B EQ PUSH2 0x1FA JUMPI DUP1 PUSH4 0x8E15F473 EQ PUSH2 0x1D7 JUMPI DUP1 PUSH4 0x92CD1FF2 EQ PUSH2 0x1B4 JUMPI DUP1 PUSH4 0x992642E5 EQ PUSH2 0x16F JUMPI DUP1 PUSH4 0xF14210A6 EQ PUSH2 0x94 JUMPI PUSH4 0xF1A640F8 EQ PUSH2 0x72 JUMPI PUSH0 DUP1 REVERT JUMPDEST CALLVALUE PUSH2 0x91 JUMPI DUP1 PUSH1 0x3 NOT CALLDATASIZE ADD SLT PUSH2 0x91 JUMPI PUSH1 0x20 PUSH1 0x40 MLOAD PUSH5 0x2540BE400 DUP2 MSTORE RETURN JUMPDEST DUP1 REVERT JUMPDEST POP CALLVALUE PUSH2 0x91 JUMPI PUSH1 0x20 CALLDATASIZE PUSH1 0x3 NOT ADD SLT PUSH2 0x91 JUMPI PUSH1 0x4 CALLDATALOAD PUSH32 0x0 PUSH1 0x1 PUSH1 0x1 PUSH1 0xA0 SHL SUB DUP2 AND CALLER SUB PUSH2 0x160 JUMPI DUP2 SELFBALANCE LT PUSH2 0x151 JUMPI DUP3 DUP1 DUP1 SWAP4 DUP2 SWAP4 GAS CALL RETURNDATASIZE ISZERO PUSH2 0x14C JUMPI RETURNDATASIZE PUSH8 0xFFFFFFFFFFFFFFFF DUP2 GT PUSH2 0x138 JUMPI PUSH1 0x40 MLOAD SWAP1 PUSH2 0x117 PUSH1 0x1F DUP3 ADD PUSH1 0x1F NOT AND PUSH1 0x20 ADD DUP4 PUSH2 0x358 JUMP JUMPDEST DUP2 MSTORE DUP3 PUSH1 0x20 RETURNDATASIZE SWAP3 ADD RETURNDATACOPY JUMPDEST ISZERO PUSH2 0x129 JUMPI DUP1 RETURN JUMPDEST PUSH4 0x39516B13 PUSH1 0xE0 SHL DUP2 MSTORE PUSH1 0x4 SWAP1 REVERT JUMPDEST PUSH4 0x4E487B71 PUSH1 0xE0 SHL DUP4 MSTORE PUSH1 0x41 PUSH1 0x4 MSTORE PUSH1 0x24 DUP4 REVERT JUMPDEST PUSH2 0x121 JUMP JUMPDEST PUSH4 0x2ABAA125 PUSH1 0xE2 SHL DUP4 MSTORE PUSH1 0x4 DUP4 REVERT JUMPDEST PUSH4 0xDC73169D PUSH1 0xE0 SHL DUP4 MSTORE PUSH1 0x4 DUP4 REVERT JUMPDEST POP CALLVALUE PUSH2 0x91 JUMPI DUP1 PUSH1 0x3 NOT CALLDATASIZE ADD SLT PUSH2 0x91 JUMPI PUSH1 0x40 MLOAD PUSH32 0x0 PUSH1 0x1 PUSH1 0x1 PUSH1 0xA0 SHL SUB AND DUP2 MSTORE PUSH1 0x20 SWAP1 RETURN JUMPDEST POP CALLVALUE PUSH2 0x91 JUMPI DUP1 PUSH1 0x3 NOT CALLDATASIZE ADD SLT PUSH2 0x91 JUMPI PUSH1 0x20 PUSH1 0x40 MLOAD PUSH8 0xDE0B6B3A7640000 DUP2 MSTORE RETURN JUMPDEST POP CALLVALUE PUSH2 0x91 JUMPI DUP1 PUSH1 0x3 NOT CALLDATASIZE ADD SLT PUSH2 0x91 JUMPI PUSH1 0x20 PUSH2 0x1F2 PUSH2 0x3A5 JUMP JUMPDEST PUSH1 0x40 MLOAD SWAP1 DUP2 MSTORE RETURN JUMPDEST POP CALLVALUE PUSH2 0x91 JUMPI DUP1 PUSH1 0x3 NOT CALLDATASIZE ADD SLT PUSH2 0x91 JUMPI PUSH1 0x40 MLOAD PUSH32 0x0 PUSH1 0x1 PUSH1 0x1 PUSH1 0xA0 SHL SUB AND DUP2 MSTORE PUSH1 0x20 SWAP1 RETURN JUMPDEST POP CALLVALUE PUSH2 0x91 JUMPI DUP1 PUSH1 0x3 NOT CALLDATASIZE ADD SLT PUSH2 0x91 JUMPI PUSH1 0x40 MLOAD PUSH32 0x0 PUSH1 0x1 PUSH1 0x1 PUSH1 0xA0 SHL SUB AND DUP2 MSTORE PUSH1 0x20 SWAP1 RETURN JUMPDEST POP PUSH0 CALLDATASIZE PUSH1 0x3 NOT ADD SLT PUSH2 0x331 JUMPI CALLVALUE ISZERO PUSH2 0x349 JUMPI PUSH2 0x29E PUSH2 0x3A5 JUMP JUMPDEST DUP1 CALLVALUE MUL SWAP1 CALLVALUE DUP3 DIV SUB PUSH2 0x335 JUMPI PUSH32 0x0 PUSH1 0x1 PUSH1 0x1 PUSH1 0xA0 SHL SUB AND SWAP1 DUP2 EXTCODESIZE ISZERO PUSH2 0x331 JUMPI PUSH8 0xDE0B6B3A7640000 PUSH1 0x44 PUSH0 SWAP3 DUP4 PUSH1 0x40 MLOAD SWAP6 DUP7 SWAP5 DUP6 SWAP4 PUSH4 0x40C10F19 PUSH1 0xE0 SHL DUP6 MSTORE CALLER PUSH1 0x4 DUP7 ADD MSTORE DIV PUSH1 0x24 DUP5 ADD MSTORE GAS CALL DUP1 ISZERO PUSH2 0x326 JUMPI PUSH2 0x318 JUMPI POP DUP1 RETURN JUMPDEST PUSH2 0x324 SWAP2 POP PUSH0 SWAP1 PUSH2 0x358 JUMP JUMPDEST STOP JUMPDEST PUSH1 0x40 MLOAD RETURNDATASIZE PUSH0 DUP3 RETURNDATACOPY RETURNDATASIZE SWAP1 REVERT JUMPDEST PUSH0 DUP1 REVERT JUMPDEST PUSH4 0x4E487B71 PUSH1 0xE0 SHL PUSH0 MSTORE PUSH1 0x11 PUSH1 0x4 MSTORE PUSH1 0x24 PUSH0 REVERT JUMPDEST PUSH4 0x11F048C1 PUSH1 0xE2 SHL PUSH0 MSTORE PUSH1 0x4 PUSH0 REVERT JUMPDEST SWAP1 PUSH1 0x1F DUP1 NOT SWAP2 ADD AND DUP2 ADD SWAP1 DUP2 LT PUSH8 0xFFFFFFFFFFFFFFFF DUP3 GT OR PUSH2 0x37A JUMPI PUSH1 0x40 MSTORE JUMP JUMPDEST PUSH4 0x4E487B71 PUSH1 0xE0 SHL PUSH0 MSTORE PUSH1 0x41 PUSH1 0x4 MSTORE PUSH1 0x24 PUSH0 REVERT JUMPDEST MLOAD SWAP1 PUSH10 0xFFFFFFFFFFFFFFFFFFFF DUP3 AND DUP3 SUB PUSH2 0x331 JUMPI JUMP JUMPDEST PUSH1 0x40 MLOAD PUSH4 0x3FABE5A3 PUSH1 0xE2 SHL DUP2 MSTORE PUSH1 0xA0 DUP2 PUSH1 0x4 DUP2 PUSH32 0x0 PUSH1 0x1 PUSH1 0x1 PUSH1 0xA0 SHL SUB AND GAS STATICCALL SWAP1 DUP2 ISZERO PUSH2 0x326 JUMPI PUSH0 SWAP2 PUSH2 0x45E JUMPI JUMPDEST POP PUSH0 DUP2 SGT ISZERO PUSH2 0x419 JUMPI PUSH5 0x2540BE400 DUP2 MUL SWAP1 DUP1 DUP3 DIV PUSH5 0x2540BE400 EQ SWAP1 ISZERO OR ISZERO PUSH2 0x335 JUMPI SWAP1 JUMP JUMPDEST PUSH1 0x40 MLOAD PUSH3 0x461BCD PUSH1 0xE5 SHL DUP2 MSTORE PUSH1 0x20 PUSH1 0x4 DUP3 ADD MSTORE PUSH1 0x19 PUSH1 0x24 DUP3 ADD MSTORE PUSH32 0x496E76616C69642070726963652066726F6D206F7261636C6500000000000000 PUSH1 0x44 DUP3 ADD MSTORE PUSH1 0x64 SWAP1 REVERT JUMPDEST SWAP1 POP PUSH1 0xA0 DUP2 RETURNDATASIZE PUSH1 0xA0 GT PUSH2 0x4A3 JUMPI JUMPDEST DUP2 PUSH2 0x479 PUSH1 0xA0 SWAP4 DUP4 PUSH2 0x358 JUMP JUMPDEST DUP2 ADD SUB SLT PUSH2 0x331 JUMPI PUSH2 0x48A DUP2 PUSH2 0x38E JUMP JUMPDEST POP PUSH2 0x49C PUSH1 0x80 PUSH1 0x20 DUP4 ADD MLOAD SWAP3 ADD PUSH2 0x38E JUMP JUMPDEST POP PUSH0 PUSH2 0x3F2 JUMP JUMPDEST RETURNDATASIZE SWAP2 POP PUSH2 0x46C JUMP INVALID LOG2 PUSH5 0x6970667358 0x22 SLT KECCAK256 DUP6 BYTE CALL 0x4E ADDMOD 0xD5 0xCE 0x28 0x2F 0xEE AND DUP15 SWAP8 0xDB RETURNDATASIZE 0xA6 0xCB 0x28 PUSH20 0xF0F70F8C883403E7069BCEB39564736F6C634300 ADDMOD SHL STOP CALLER "},"methodIdentifiers":{"ETH_DECIMALS()":"92cd1ff2","PRICE_DECIMALS()":"f1a640f8","getLatestPrice()":"8e15f473","mintStableCoins()":"1ac02f9f","owner()":"8da5cb5b","priceFeed()":"741bef1a","stableCoin()":"992642e5","withdrawETH(uint256)":"f14210a6"}}}}}