{
  "_format": "hh-sol-artifact-1",
  "contractName": "Manager",
  "sourceName": "contracts/Manager.sol",
  "abi": [
    {
      "inputs": [
        {
          "internalType": "address",
          "name": "_stableCoin",
          "type": "address"
        },
        {
          "internalType": "address",
          "name": "_priceFeed",
          "type": "address"
        },
        {
          "internalType": "address",
          "name": "_owner",
          "type": "address"
        }
      ],
      "stateMutability": "nonpayable",
      "type": "constructor"
    },
    {
      "inputs": [],
      "name": "Manager__ETHAmountCannotBeZero",
      "type": "error"
    },
    {
      "inputs": [],
      "name": "Manager__OnlyOwnerCanCallThisFunction",
      "type": "error"
    },
    {
      "inputs": [],
      "name": "Manager__WithdrawAmountExceedsContractBalance",
      "type": "error"
    },
    {
      "inputs": [],
      "name": "Manager__WithdrawETHFailed",
      "type": "error"
    },
    {
      "inputs": [],
      "name": "ETH_DECIMALS",
      "outputs": [
        {
          "internalType": "uint256",
          "name": "",
          "type": "uint256"
        }
      ],
      "stateMutability": "view",
      "type": "function"
    },
    {
      "inputs": [],
      "name": "PRICE_DECIMALS",
      "outputs": [
        {
          "internalType": "uint256",
          "name": "",
          "type": "uint256"
        }
      ],
      "stateMutability": "view",
      "type": "function"
    },
    {
      "inputs": [],
      "name": "getLatestPrice",
      "outputs": [
        {
          "internalType": "uint256",
          "name": "",
          "type": "uint256"
        }
      ],
      "stateMutability": "view",
      "type": "function"
    },
    {
      "inputs": [],
      "name": "mintStableCoins",
      "outputs": [],
      "stateMutability": "payable",
      "type": "function"
    },
    {
      "inputs": [],
      "name": "owner",
      "outputs": [
        {
          "internalType": "address",
          "name": "",
          "type": "address"
        }
      ],
      "stateMutability": "view",
      "type": "function"
    },
    {
      "inputs": [],
      "name": "priceFeed",
      "outputs": [
        {
          "internalType": "contract AggregatorV3Interface",
          "name": "",
          "type": "address"
        }
      ],
      "stateMutability": "view",
      "type": "function"
    },
    {
      "inputs": [],
      "name": "stableCoin",
      "outputs": [
        {
          "internalType": "contract StableCoin",
          "name": "",
          "type": "address"
        }
      ],
      "stateMutability": "view",
      "type": "function"
    },
    {
      "inputs": [
        {
          "internalType": "uint256",
          "name": "ethAmount",
          "type": "uint256"
        }
      ],
      "name": "withdrawETH",
      "outputs": [],
      "stateMutability": "nonpayable",
      "type": "function"
    }
  ],
  "bytecode": "0x60e0346100b457601f6105c238819003918201601f19168301916001600160401b038311848410176100b8578084926060946040528339810103126100b457610047816100cc565b906100606040610059602084016100cc565b92016100cc565b6001600160a01b03928316608052911660c05260a0526040516104e190816100e1823960805181818161018501526102ac015260a05181818160ab0152610210015260c05181818161025501526103ba0152f35b5f80fd5b634e487b7160e01b5f52604160045260245ffd5b51906001600160a01b03821682036100b45756fe60806040526004361015610011575f80fd5b5f5f3560e01c80631ac02f9f14610284578063741bef1a1461023f5780638da5cb5b146101fa5780638e15f473146101d757806392cd1ff2146101b4578063992642e51461016f578063f14210a6146100945763f1a640f814610072575f80fd5b3461009157806003193601126100915760206040516402540be4008152f35b80fd5b5034610091576020366003190112610091576004357f00000000000000000000000000000000000000000000000000000000000000006001600160a01b038116330361016057814710610151578280809381935af13d1561014c573d67ffffffffffffffff81116101385760405190610117601f8201601f191660200183610358565b81528260203d92013e5b156101295780f35b6339516b1360e01b8152600490fd5b634e487b7160e01b83526041600452602483fd5b610121565b632abaa12560e21b8352600483fd5b63dc73169d60e01b8352600483fd5b50346100915780600319360112610091576040517f00000000000000000000000000000000000000000000000000000000000000006001600160a01b03168152602090f35b50346100915780600319360112610091576020604051670de0b6b3a76400008152f35b503461009157806003193601126100915760206101f26103a5565b604051908152f35b50346100915780600319360112610091576040517f00000000000000000000000000000000000000000000000000000000000000006001600160a01b03168152602090f35b50346100915780600319360112610091576040517f00000000000000000000000000000000000000000000000000000000000000006001600160a01b03168152602090f35b505f3660031901126103315734156103495761029e6103a5565b8034029034820403610335577f00000000000000000000000000000000000000000000000000000000000000006001600160a01b031690813b1561033157670de0b6b3a764000060445f928360405195869485936340c10f1960e01b85523360048601520460248401525af1801561032657610318575080f35b61032491505f90610358565b005b6040513d5f823e3d90fd5b5f80fd5b634e487b7160e01b5f52601160045260245ffd5b6311f048c160e21b5f5260045ffd5b90601f8019910116810190811067ffffffffffffffff82111761037a57604052565b634e487b7160e01b5f52604160045260245ffd5b519069ffffffffffffffffffff8216820361033157565b604051633fabe5a360e21b815260a0816004817f00000000000000000000000000000000000000000000000000000000000000006001600160a01b03165afa908115610326575f9161045e575b505f811315610419576402540be4008102908082046402540be40014901517156103355790565b60405162461bcd60e51b815260206004820152601960248201527f496e76616c69642070726963652066726f6d206f7261636c65000000000000006044820152606490fd5b905060a0813d60a0116104a3575b8161047960a09383610358565b810103126103315761048a8161038e565b5061049c60806020830151920161038e565b505f6103f2565b3d915061046c56fea2646970667358221220851af14e08d5ce282fee168e97db3da6cb2873f0f70f8c883403e7069bceb39564736f6c634300081b0033",
  "linkReferences": {},
  "deployedLinkReferences": {}
}